{"abi":[{"type":"constructor","inputs":[{"name":"_gateways","type":"string[]","internalType":"string[]"}],"stateMutability":"nonpayable"},{"type":"function","name":"gateways","inputs":[{"name":"","type":"uint256","internalType":"uint256"}],"outputs":[{"name":"","type":"string","internalType":"string"}],"stateMutability":"view"},{"type":"function","name":"prove","inputs":[{"name":"target","type":"address","internalType":"address"},{"name":"slot","type":"bytes32","internalType":"bytes32"}],"outputs":[],"stateMutability":"view"},{"type":"function","name":"proveCallback","inputs":[{"name":"response","type":"bytes","internalType":"bytes"},{"name":"carry","type":"bytes","internalType":"bytes"}],"outputs":[],"stateMutability":"view"},{"type":"error","name":"OffchainLookup","inputs":[{"name":"from","type":"address","internalType":"address"},{"name":"urls","type":"string[]","internalType":"string[]"},{"name":"request","type":"bytes","internalType":"bytes"},{"name":"callback","type":"bytes4","internalType":"bytes4"},{"name":"carry","type":"bytes","internalType":"bytes"}]}],"bytecode":{"object":"0x60806040523480156200001157600080fd5b5060405162000a0238038062000a02833981016040819052620000349162000171565b80516200004990600090602084019062000051565b505062000413565b8280548282559060005260206000209081019282156200009c579160200282015b828111156200009c57825182906200008b908262000347565b509160200191906001019062000072565b50620000aa929150620000ae565b5090565b80821115620000aa576000620000c58282620000cf565b50600101620000ae565b508054620000dd90620002b6565b6000825580601f10620000ee575050565b601f0160209004906000526020600020908101906200010e919062000111565b50565b5b80821115620000aa576000815560010162000112565b634e487b7160e01b600052604160045260246000fd5b604051601f8201601f191681016001600160401b038111828210171562000169576200016962000128565b604052919050565b600060208083850312156200018557600080fd5b82516001600160401b03808211156200019d57600080fd5b8185019150601f86601f840112620001b457600080fd5b825182811115620001c957620001c962000128565b8060051b620001da8682016200013e565b918252848101860191868101908a841115620001f557600080fd5b87870192505b83831015620002a857825186811115620002155760008081fd5b8701603f81018c13620002285760008081fd5b88810151878111156200023f576200023f62000128565b62000252818801601f19168b016200013e565b81815260408e818486010111156200026a5760008081fd5b60005b838110156200028a578481018201518382018e01528c016200026d565b505060009181018b01919091528352509187019190870190620001fb565b9a9950505050505050505050565b600181811c90821680620002cb57607f821691505b602082108103620002ec57634e487b7160e01b600052602260045260246000fd5b50919050565b601f82111562000342576000816000526020600020601f850160051c810160208610156200031d5750805b601f850160051c820191505b818110156200033e5782815560010162000329565b5050505b505050565b81516001600160401b0381111562000363576200036362000128565b6200037b81620003748454620002b6565b84620002f2565b602080601f831160018114620003b357600084156200039a5750858301515b600019600386901b1c1916600185901b1785556200033e565b600085815260208120601f198616915b82811015620003e457888601518255948401946001909101908401620003c3565b5085821015620004035787850151600019600388901b60f8161c191681555b5050505050600190811b01905550565b6105df80620004236000396000f3fe608060405234801561001057600080fd5b50600436106100415760003560e01c8063121abb7e1461004657806364c170561461005b578063edc87fee14610084575b600080fd5b6100596100543660046102a8565b610097565b005b61006e6100693660046102d4565b6101be565b60405161007b9190610333565b60405180910390f35b610059610092366004610396565b61026a565b60405173ffffffffffffffffffffffffffffffffffffffff8316602482015260448101829052309060009060640160408051601f19818403018152918152602080830180517bffffffffffffffffffffffffffffffffffffffffffffffffffffffff167f121abb7e0000000000000000000000000000000000000000000000000000000017905290517fedc87fee000000000000000000000000000000000000000000000000000000009161017191889188910173ffffffffffffffffffffffffffffffffffffffff929092168252602082015260400190565b60408051601f19818403018152908290527f556f18300000000000000000000000000000000000000000000000000000000082526101b5959493929160040161043c565b60405180910390fd5b600081815481106101ce57600080fd5b9060005260206000200160009150905080546101e990610402565b80601f016020809104026020016040519081016040528092919081815260200182805461021590610402565b80156102625780601f1061023757610100808354040283529160200191610262565b820191906000526020600020905b81548152906001019060200180831161024557829003601f168201915b505050505081565b600080610279838501856102a8565b5050505050505050565b73ffffffffffffffffffffffffffffffffffffffff811681146102a557600080fd5b50565b600080604083850312156102bb57600080fd5b82356102c681610283565b946020939093013593505050565b6000602082840312156102e657600080fd5b5035919050565b6000815180845260005b81811015610313576020818501810151868301820152016102f7565b506000602082860101526020601f19601f83011685010191505092915050565b60208152600061034660208301846102ed565b9392505050565b60008083601f84011261035f57600080fd5b50813567ffffffffffffffff81111561037757600080fd5b60208301915083602082850101111561038f57600080fd5b9250929050565b600080600080604085870312156103ac57600080fd5b843567ffffffffffffffff808211156103c457600080fd5b6103d08883890161034d565b909650945060208701359150808211156103e957600080fd5b506103f68782880161034d565b95989497509550505050565b600181811c9082168061041657607f821691505b60208210810361043657634e487b7160e01b600052602260045260246000fd5b50919050565b600060a0820173ffffffffffffffffffffffffffffffffffffffff88168352602060a0602085015281885480845260c0860191506005935060c08160051b87010160008b815260208120815b848110156105425789840360bf1901865281548390600181811c90808316806104b257607f831692505b8b831081036104cf57634e487b7160e01b88526022600452602488fd5b828952602089018180156104ea57600181146104ff57610529565b60ff19861682528415158f1b82019650610529565b6000898152602090208a5b8681101561052357815484820152908501908f0161050a565b83019750505b505050988a019892965050509190910190600101610488565b5050508681036040880152610557818b6102ed565b94505050505061058b60608401867fffffffff00000000000000000000000000000000000000000000000000000000169052565b828103608084015261059d81856102ed565b9897505050505050505056fea2646970667358221220d53946fcb38bc94b78ecbc995c5f5794a1e2b4edfb4bf49ed817f86d432715c164736f6c63430008170033","linkReferences":{}},"methodIdentifiers":{"gateways(uint256)":"64c17056","prove(address,bytes32)":"121abb7e","proveCallback(bytes,bytes)":"edc87fee"},"id":2}